{
  "transactions": [
    {
      "hash": "0x79495a1d2fb4b90e638cc96cc21d4fae9a4fbcfa8280534328e92686e1f2cacf",
      "transactionType": "CREATE",
      "contractName": "MyToken",
      "contractAddress": "0x5fbdb2315678afecb367f032d93f642f64180aa3",
      "function": null,
      "arguments": [
        "MyToken",
        "MTK",
        "18",
        "1000000"
      ],
      "transaction": {
        "from": "0xf39fd6e51aad88f6f4ce6ab8827279cfffb92266",
        "gas": "0xeb455",
        "value": "0x0",
        "input": "0x608060405234801562000010575f80fd5b5060405162000f4838038062000f4883398101604081905262000033916200021e565b5f6200004085826200032f565b5060016200004f84826200032f565b506002805460ff191660ff8416908117909155620000889033906200007690600a62000506565b6200008290846200051a565b62000092565b505050506200054a565b8060035f828254620000a5919062000534565b90915550506001600160a01b0382165f9081526004602052604081208054839290620000d390849062000534565b90915550506040518181526001600160a01b038316905f907fddf252ad1be2c89b69c2b068fc378daa952ba7f163c4a11628f55a4df523b3ef9060200160405180910390a3816001600160a01b03167f3f2c9d57c068687834f0de942a9babb9e5acab57d516d3480a3c16ee165a4273826040516200015491815260200190565b60405180910390a25050565b634e487b7160e01b5f52604160045260245ffd5b5f82601f83011262000184575f80fd5b81516001600160401b0380821115620001a157620001a162000160565b604051601f8301601f19908116603f01168101908282118183101715620001cc57620001cc62000160565b81604052838152602092508683858801011115620001e8575f80fd5b5f91505b838210156200020b5785820183015181830184015290820190620001ec565b5f93810190920192909252949350505050565b5f805f806080858703121562000232575f80fd5b84516001600160401b038082111562000249575f80fd5b620002578883890162000174565b955060208701519150808211156200026d575f80fd5b506200027c8782880162000174565b935050604085015160ff8116811462000293575f80fd5b6060959095015193969295505050565b600181811c90821680620002b857607f821691505b602082108103620002d757634e487b7160e01b5f52602260045260245ffd5b50919050565b601f8211156200032a575f81815260208120601f850160051c81016020861015620003055750805b601f850160051c820191505b81811015620003265782815560010162000311565b5050505b505050565b81516001600160401b038111156200034b576200034b62000160565b62000363816200035c8454620002a3565b84620002dd565b602080601f83116001811462000399575f8415620003815750858301515b5f19600386901b1c1916600185901b17855562000326565b5f85815260208120601f198616915b82811015620003c957888601518255948401946001909101908401620003a8565b5085821015620003e757878501515f19600388901b60f8161c191681555b5050505050600190811b01905550565b634e487b7160e01b5f52601160045260245ffd5b600181815b808511156200044b57815f19048211156200042f576200042f620003f7565b808516156200043d57918102915b93841c939080029062000410565b509250929050565b5f82620004635750600162000500565b816200047157505f62000500565b81600181146200048a57600281146200049557620004b5565b600191505062000500565b60ff841115620004a957620004a9620003f7565b50506001821b62000500565b5060208310610133831016604e8410600b8410161715620004da575081810a62000500565b620004e683836200040b565b805f1904821115620004fc57620004fc620003f7565b0290505b92915050565b5f62000513838362000453565b9392505050565b8082028115828204841417620005005762000500620003f7565b80820180821115620005005762000500620003f7565b6109f080620005585f395ff3fe608060405234801561000f575f80fd5b50600436106100b1575f3560e01c806342966c681161006e57806342966c681461015457806370a082311461016757806379cc67901461018657806395d89b4114610199578063a9059cbb146101a1578063dd62ed3e146101b4575f80fd5b806306fdde03146100b5578063095ea7b3146100d357806318160ddd146100f657806323b872dd1461010d578063313ce5671461012057806340c10f191461013f575b5f80fd5b6100bd6101de565b6040516100ca9190610819565b60405180910390f35b6100e66100e136600461087f565b610269565b60405190151581526020016100ca565b6100ff60035481565b6040519081526020016100ca565b6100e661011b3660046108a7565b61027f565b60025461012d9060ff1681565b60405160ff90911681526020016100ca565b61015261014d36600461087f565b6102a0565b005b6101526101623660046108e0565b6102ae565b6100ff6101753660046108f7565b60046020525f908152604090205481565b61015261019436600461087f565b6102bb565b6100bd6102d0565b6100e66101af36600461087f565b6102dd565b6100ff6101c2366004610917565b600560209081525f928352604080842090915290825290205481565b5f80546101ea90610948565b80601f016020809104026020016040519081016040528092919081815260200182805461021690610948565b80156102615780601f1061023857610100808354040283529160200191610261565b820191905f5260205f20905b81548152906001019060200180831161024457829003601f168201915b505050505081565b5f6102753384846102e9565b5060015b92915050565b5f61028b843384610412565b6102968484846104c5565b5060019392505050565b6102aa8282610691565b5050565b6102b8338261075a565b50565b6102c6823383610412565b6102aa828261075a565b600180546101ea90610948565b5f6102753384846104c5565b6001600160a01b0383166103505760405162461bcd60e51b8152602060048201526024808201527f45524332303a20617070726f76652066726f6d20746865207a65726f206164646044820152637265737360e01b60648201526084015b60405180910390fd5b6001600160a01b0382166103b15760405162461bcd60e51b815260206004820152602260248201527f45524332303a20617070726f766520746f20746865207a65726f206164647265604482015261737360f01b6064820152608401610347565b6001600160a01b038381165f8181526005602090815260408083209487168084529482529182902085905590518481527f8c5be1e5ebec7d5bd14f71427d1e84f3dd0314c0f7b2291e5b200ac8c7c3b92591015b60405180910390a3505050565b6001600160a01b038084165f908152600560209081526040808320938616835292905220545f1981146104bf578181101561048f5760405162461bcd60e51b815260206004820152601d60248201527f45524332303a20696e73756666696369656e7420616c6c6f77616e63650000006044820152606401610347565b6104998282610994565b6001600160a01b038086165f908152600560209081526040808320938816835292905220555b50505050565b6001600160a01b0383166105295760405162461bcd60e51b815260206004820152602560248201527f45524332303a207472616e736665722066726f6d20746865207a65726f206164604482015264647265737360d81b6064820152608401610347565b6001600160a01b03821661058b5760405162461bcd60e51b815260206004820152602360248201527f45524332303a207472616e7366657220746f20746865207a65726f206164647260448201526265737360e81b6064820152608401610347565b6001600160a01b0383165f908152600460205260409020548111156105f25760405162461bcd60e51b815260206004820152601b60248201527f45524332303a20696e73756666696369656e742062616c616e636500000000006044820152606401610347565b6001600160a01b0383165f9081526004602052604081208054839290610619908490610994565b90915550506001600160a01b0382165f90815260046020526040812080548392906106459084906109a7565b92505081905550816001600160a01b0316836001600160a01b03167fddf252ad1be2c89b69c2b068fc378daa952ba7f163c4a11628f55a4df523b3ef8360405161040591815260200190565b8060035f8282546106a291906109a7565b90915550506001600160a01b0382165f90815260046020526040812080548392906106ce9084906109a7565b90915550506040518181526001600160a01b038316905f907fddf252ad1be2c89b69c2b068fc378daa952ba7f163c4a11628f55a4df523b3ef9060200160405180910390a3816001600160a01b03167f3f2c9d57c068687834f0de942a9babb9e5acab57d516d3480a3c16ee165a42738260405161074e91815260200190565b60405180910390a25050565b6001600160a01b0382165f9081526004602052604081208054839290610781908490610994565b925050819055508060035f8282546107999190610994565b90915550506040518181525f906001600160a01b038416907fddf252ad1be2c89b69c2b068fc378daa952ba7f163c4a11628f55a4df523b3ef9060200160405180910390a3816001600160a01b03167ffd38818f5291bf0bb3a2a48aadc06ba8757865d1dabd804585338aab3009dcb68260405161074e91815260200190565b5f6020808352835180828501525f5b8181101561084457858101830151858201604001528201610828565b505f604082860101526040601f19601f8301168501019250505092915050565b80356001600160a01b038116811461087a575f80fd5b919050565b5f8060408385031215610890575f80fd5b61089983610864565b946020939093013593505050565b5f805f606084860312156108b9575f80fd5b6108c284610864565b92506108d060208501610864565b9150604084013590509250925092565b5f602082840312156108f0575f80fd5b5035919050565b5f60208284031215610907575f80fd5b61091082610864565b9392505050565b5f8060408385031215610928575f80fd5b61093183610864565b915061093f60208401610864565b90509250929050565b600181811c9082168061095c57607f821691505b60208210810361097a57634e487b7160e01b5f52602260045260245ffd5b50919050565b634e487b7160e01b5f52601160045260245ffd5b8181038181111561027957610279610980565b808201808211156102795761027961098056fea2646970667358221220004d4be8e74a5da67ada93b8c7da17dd09522c6ed1f848c7dbfa8d379cdd2f3564736f6c63430008140033000000000000000000000000000000000000000000000000000000000000008000000000000000000000000000000000000000000000000000000000000000c0000000000000000000000000000000000000000000000000000000000000001200000000000000000000000000000000000000000000000000000000000f424000000000000000000000000000000000000000000000000000000000000000074d79546f6b656e0000000000000000000000000000000000000000000000000000000000000000000000000000000000000000000000000000000000000000034d544b0000000000000000000000000000000000000000000000000000000000",
        "nonce": "0x0",
        "chainId": "0x7a69"
      },
      "additionalContracts": [],
      "isFixedGasLimit": false
    },
    {
      "hash": "0x985a0aa345518aad1821ed8b4e306ee004eb27fe2b792797c99554ad9926ac59",
      "transactionType": "CALL",
      "contractName": "MyToken",
      "contractAddress": "0x5fbdb2315678afecb367f032d93f642f64180aa3",
      "function": "transfer(address,uint256)",
      "arguments": [
        "0x1234567890123456789012345678901234567890",
        "1000000000000000000000"
      ],
      "transaction": {
        "from": "0xf39fd6e51aad88f6f4ce6ab8827279cfffb92266",
        "to": "0x5fbdb2315678afecb367f032d93f642f64180aa3",
        "gas": "0x127e5",
        "value": "0x0",
        "input": "0xa9059cbb000000000000000000000000123456789012345678901234567890123456789000000000000000000000000000000000000000000000003635c9adc5dea00000",
        "nonce": "0x1",
        "chainId": "0x7a69"
      },
      "additionalContracts": [],
      "isFixedGasLimit": false
    },
    {
      "hash": "0x51ffba0c981e92fae9f9b5f36f5bc9b3b9db9f8ee5905e71629ee8cca0098f47",
      "transactionType": "CALL",
      "contractName": "MyToken",
      "contractAddress": "0x5fbdb2315678afecb367f032d93f642f64180aa3",
      "function": "transfer(address,uint256)",
      "arguments": [
        "0xABcdEFABcdEFabcdEfAbCdefabcdeFABcDEFabCD",
        "2000000000000000000000"
      ],
      "transaction": {
        "from": "0xf39fd6e51aad88f6f4ce6ab8827279cfffb92266",
        "to": "0x5fbdb2315678afecb367f032d93f642f64180aa3",
        "gas": "0x127e5",
        "value": "0x0",
        "input": "0xa9059cbb000000000000000000000000abcdefabcdefabcdefabcdefabcdefabcdefabcd00000000000000000000000000000000000000000000006c6b935b8bbd400000",
        "nonce": "0x2",
        "chainId": "0x7a69"
      },
      "additionalContracts": [],
      "isFixedGasLimit": false
    },
    {
      "hash": "0x1dafd149bf9cfedc2036bdf1c33b1b0f3f012dc33f451c7e2ff5ee383b90c114",
      "transactionType": "CALL",
      "contractName": "MyToken",
      "contractAddress": "0x5fbdb2315678afecb367f032d93f642f64180aa3",
      "function": "transfer(address,uint256)",
      "arguments": [
        "0x1111111111111111111111111111111111111111",
        "3000000000000000000000"
      ],
      "transaction": {
        "from": "0xf39fd6e51aad88f6f4ce6ab8827279cfffb92266",
        "to": "0x5fbdb2315678afecb367f032d93f642f64180aa3",
        "gas": "0x127e5",
        "value": "0x0",
        "input": "0xa9059cbb00000000000000000000000011111111111111111111111111111111111111110000000000000000000000000000000000000000000000a2a15d09519be00000",
        "nonce": "0x3",
        "chainId": "0x7a69"
      },
      "additionalContracts": [],
      "isFixedGasLimit": false
    },
    {
      "hash": "0x092839e58077a3f29fb9440094d15df19fc6c1742fe6e6802b0a1cc30a943f7e",
      "transactionType": "CALL",
      "contractName": "MyToken",
      "contractAddress": "0x5fbdb2315678afecb367f032d93f642f64180aa3",
      "function": "transfer(address,uint256)",
      "arguments": [
        "0x1234567890123456789012345678901234567890",
        "500000000000000000000"
      ],
      "transaction": {
        "from": "0xf39fd6e51aad88f6f4ce6ab8827279cfffb92266",
        "to": "0x5fbdb2315678afecb367f032d93f642f64180aa3",
        "gas": "0xbb31",
        "value": "0x0",
        "input": "0xa9059cbb000000000000000000000000123456789012345678901234567890123456789000000000000000000000000000000000000000000000001b1ae4d6e2ef500000",
        "nonce": "0x4",
        "chainId": "0x7a69"
      },
      "additionalContracts": [],
      "isFixedGasLimit": false
    },
    {
      "hash": "0xa18374bcfe71c2d30d34519252cda2e6c39b409e2dfeaa608c4dec94f18d4912",
      "transactionType": "CALL",
      "contractName": "MyToken",
      "contractAddress": "0x5fbdb2315678afecb367f032d93f642f64180aa3",
      "function": "transfer(address,uint256)",
      "arguments": [
        "0xABcdEFABcdEFabcdEfAbCdefabcdeFABcDEFabCD",
        "1500000000000000000000"
      ],
      "transaction": {
        "from": "0xf39fd6e51aad88f6f4ce6ab8827279cfffb92266",
        "to": "0x5fbdb2315678afecb367f032d93f642f64180aa3",
        "gas": "0xbb31",
        "value": "0x0",
        "input": "0xa9059cbb000000000000000000000000abcdefabcdefabcdefabcdefabcdefabcdefabcd00000000000000000000000000000000000000000000005150ae84a8cdf00000",
        "nonce": "0x5",
        "chainId": "0x7a69"
      },
      "additionalContracts": [],
      "isFixedGasLimit": false
    }
  ],
  "receipts": [
    {
      "status": "0x1",
      "cumulativeGasUsed": "0xb4fa4",
      "logs": [
        {
          "address": "0x5fbdb2315678afecb367f032d93f642f64180aa3",
          "topics": [
            "0xddf252ad1be2c89b69c2b068fc378daa952ba7f163c4a11628f55a4df523b3ef",
            "0x0000000000000000000000000000000000000000000000000000000000000000",
            "0x000000000000000000000000f39fd6e51aad88f6f4ce6ab8827279cfffb92266"
          ],
          "data": "0x00000000000000000000000000000000000000000000d3c21bcecceda1000000",
          "blockHash": "0x2aac97ce057ffd8d4a22b46fb8da51132c4b16185131d0477dba84baf9c73e58",
          "blockNumber": "0x1",
          "blockTimestamp": "0x69bab5c9",
          "transactionHash": "0x79495a1d2fb4b90e638cc96cc21d4fae9a4fbcfa8280534328e92686e1f2cacf",
          "transactionIndex": "0x0",
          "logIndex": "0x0",
          "removed": false
        },
        {
          "address": "0x5fbdb2315678afecb367f032d93f642f64180aa3",
          "topics": [
            "0x3f2c9d57c068687834f0de942a9babb9e5acab57d516d3480a3c16ee165a4273",
            "0x000000000000000000000000f39fd6e51aad88f6f4ce6ab8827279cfffb92266"
          ],
          "data": "0x00000000000000000000000000000000000000000000d3c21bcecceda1000000",
          "blockHash": "0x2aac97ce057ffd8d4a22b46fb8da51132c4b16185131d0477dba84baf9c73e58",
          "blockNumber": "0x1",
          "blockTimestamp": "0x69bab5c9",
          "transactionHash": "0x79495a1d2fb4b90e638cc96cc21d4fae9a4fbcfa8280534328e92686e1f2cacf",
          "transactionIndex": "0x0",
          "logIndex": "0x1",
          "removed": false
        }
      ],
      "logsBloom": "0x00000000000000000000000000000000000000000000000000000000000000000000000000000000000000000000000000400000000000000000000000000000000000000000000000000008000000000000000000000000000000000000000000000040020000000000000100000800000000000000000000000010000000000000000000000000000000000000000100000000000000000000000200000000000000000000000000000000000000000000000000000000000000000000000000000042000000200000000000000000000000002000000000000800000020000000000000000000000000000000000000000000000000000000000000000000",
      "type": "0x2",
      "transactionHash": "0x79495a1d2fb4b90e638cc96cc21d4fae9a4fbcfa8280534328e92686e1f2cacf",
      "transactionIndex": "0x0",
      "blockHash": "0x2aac97ce057ffd8d4a22b46fb8da51132c4b16185131d0477dba84baf9c73e58",
      "blockNumber": "0x1",
      "gasUsed": "0xb4fa4",
      "effectiveGasPrice": "0x3b9aca01",
      "blobGasPrice": "0x1",
      "from": "0xf39fd6e51aad88f6f4ce6ab8827279cfffb92266",
      "to": null,
      "contractAddress": "0x5fbdb2315678afecb367f032d93f642f64180aa3"
    },
    {
      "status": "0x1",
      "cumulativeGasUsed": "0xca53",
      "logs": [
        {
          "address": "0x5fbdb2315678afecb367f032d93f642f64180aa3",
          "topics": [
            "0xddf252ad1be2c89b69c2b068fc378daa952ba7f163c4a11628f55a4df523b3ef",
            "0x000000000000000000000000f39fd6e51aad88f6f4ce6ab8827279cfffb92266",
            "0x0000000000000000000000001234567890123456789012345678901234567890"
          ],
          "data": "0x00000000000000000000000000000000000000000000003635c9adc5dea00000",
          "blockHash": "0xdf5dfa44de8d97a1b3dd9c85eb948dbef05b155df8b9c2ec6122ff0c8cf66a52",
          "blockNumber": "0x2",
          "blockTimestamp": "0x69bab5c9",
          "transactionHash": "0x1dafd149bf9cfedc2036bdf1c33b1b0f3f012dc33f451c7e2ff5ee383b90c114",
          "transactionIndex": "0x0",
          "logIndex": "0x0",
          "removed": false
        }
      ],
      "logsBloom": "0x00000000000000000000000000000000000000000020000000000000000000000000000000000000000000000000000000000000000000000000000000000000000000000000000000000008000000000000000000000000000000000000000000000040000000000000000100000000000000000000000000000010000000000000000000000000000000000000000000000000000000000000000200000000000000000000000000000100000000800000000000000000000000000000000000000042000000200000000000000000000000002000000000000000000000000000000000000000000000000000000000000000000000000000000000000000",
      "type": "0x2",
      "transactionHash": "0x1dafd149bf9cfedc2036bdf1c33b1b0f3f012dc33f451c7e2ff5ee383b90c114",
      "transactionIndex": "0x0",
      "blockHash": "0xdf5dfa44de8d97a1b3dd9c85eb948dbef05b155df8b9c2ec6122ff0c8cf66a52",
      "blockNumber": "0x2",
      "gasUsed": "0xca53",
      "effectiveGasPrice": "0x3485b318",
      "blobGasPrice": "0x1",
      "from": "0xf39fd6e51aad88f6f4ce6ab8827279cfffb92266",
      "to": "0x5fbdb2315678afecb367f032d93f642f64180aa3",
      "contractAddress": null
    },
    {
      "status": "0x1",
      "cumulativeGasUsed": "0x194a6",
      "logs": [
        {
          "address": "0x5fbdb2315678afecb367f032d93f642f64180aa3",
          "topics": [
            "0xddf252ad1be2c89b69c2b068fc378daa952ba7f163c4a11628f55a4df523b3ef",
            "0x000000000000000000000000f39fd6e51aad88f6f4ce6ab8827279cfffb92266",
            "0x000000000000000000000000abcdefabcdefabcdefabcdefabcdefabcdefabcd"
          ],
          "data": "0x00000000000000000000000000000000000000000000006c6b935b8bbd400000",
          "blockHash": "0xdf5dfa44de8d97a1b3dd9c85eb948dbef05b155df8b9c2ec6122ff0c8cf66a52",
          "blockNumber": "0x2",
          "blockTimestamp": "0x69bab5c9",
          "transactionHash": "0x985a0aa345518aad1821ed8b4e306ee004eb27fe2b792797c99554ad9926ac59",
          "transactionIndex": "0x1",
          "logIndex": "0x1",
          "removed": false
        }
      ],
      "logsBloom": "0x00000000000000000000000000000000000000000000000000000000000000000000000000000000000000000000000000000000000000000000000000000000000000000000000000000008000000000000000000000000000000000000000000000040000000000000000500000000000000000000000000000010000000000000000000000000000000000000000000000000000000000000000200000000020000000000000000000000000000000000000000000000000000000000000000000042000000200000000000000000000000002000000000000000000000000000000000000000000000080000000000000000000000000000000000000000",
      "type": "0x2",
      "transactionHash": "0x985a0aa345518aad1821ed8b4e306ee004eb27fe2b792797c99554ad9926ac59",
      "transactionIndex": "0x1",
      "blockHash": "0xdf5dfa44de8d97a1b3dd9c85eb948dbef05b155df8b9c2ec6122ff0c8cf66a52",
      "blockNumber": "0x2",
      "gasUsed": "0xca53",
      "effectiveGasPrice": "0x3485b318",
      "blobGasPrice": "0x1",
      "from": "0xf39fd6e51aad88f6f4ce6ab8827279cfffb92266",
      "to": "0x5fbdb2315678afecb367f032d93f642f64180aa3",
      "contractAddress": null
    },
    {
      "status": "0x1",
      "cumulativeGasUsed": "0x25ef9",
      "logs": [
        {
          "address": "0x5fbdb2315678afecb367f032d93f642f64180aa3",
          "topics": [
            "0xddf252ad1be2c89b69c2b068fc378daa952ba7f163c4a11628f55a4df523b3ef",
            "0x000000000000000000000000f39fd6e51aad88f6f4ce6ab8827279cfffb92266",
            "0x0000000000000000000000001111111111111111111111111111111111111111"
          ],
          "data": "0x0000000000000000000000000000000000000000000000a2a15d09519be00000",
          "blockHash": "0xdf5dfa44de8d97a1b3dd9c85eb948dbef05b155df8b9c2ec6122ff0c8cf66a52",
          "blockNumber": "0x2",
          "blockTimestamp": "0x69bab5c9",
          "transactionHash": "0x51ffba0c981e92fae9f9b5f36f5bc9b3b9db9f8ee5905e71629ee8cca0098f47",
          "transactionIndex": "0x2",
          "logIndex": "0x2",
          "removed": false
        }
      ],
      "logsBloom": "0x00000000000000000000000000000000000000000000000000000000000000000000000000000000000000000000000000000000000000000000000000000000000000000000000000000008000000000000000000000000000000000000000000000040000000000000000100000000000000000000000000000010000200000000000000000000000000000000000000000000000000000000000200000000240000000000000000000000000000000000000000000000000000000000000000000042000000200000000000000000000000002000000000000000000000000000000000000000000000000000000000000000000000000000000000000000",
      "type": "0x2",
      "transactionHash": "0x51ffba0c981e92fae9f9b5f36f5bc9b3b9db9f8ee5905e71629ee8cca0098f47",
      "transactionIndex": "0x2",
      "blockHash": "0xdf5dfa44de8d97a1b3dd9c85eb948dbef05b155df8b9c2ec6122ff0c8cf66a52",
      "blockNumber": "0x2",
      "gasUsed": "0xca53",
      "effectiveGasPrice": "0x3485b318",
      "blobGasPrice": "0x1",
      "from": "0xf39fd6e51aad88f6f4ce6ab8827279cfffb92266",
      "to": "0x5fbdb2315678afecb367f032d93f642f64180aa3",
      "contractAddress": null
    },
    {
      "status": "0x1",
      "cumulativeGasUsed": "0x8787",
      "logs": [
        {
          "address": "0x5fbdb2315678afecb367f032d93f642f64180aa3",
          "topics": [
            "0xddf252ad1be2c89b69c2b068fc378daa952ba7f163c4a11628f55a4df523b3ef",
            "0x000000000000000000000000f39fd6e51aad88f6f4ce6ab8827279cfffb92266",
            "0x0000000000000000000000001234567890123456789012345678901234567890"
          ],
          "data": "0x00000000000000000000000000000000000000000000001b1ae4d6e2ef500000",
          "blockHash": "0x981f06fb37b959b5a75629de0bc75a44327f2363a707628f026a2132bd4bf8fc",
          "blockNumber": "0x3",
          "blockTimestamp": "0x69bab5c9",
          "transactionHash": "0xa18374bcfe71c2d30d34519252cda2e6c39b409e2dfeaa608c4dec94f18d4912",
          "transactionIndex": "0x0",
          "logIndex": "0x0",
          "removed": false
        }
      ],
      "logsBloom": "0x00000000000000000000000000000000000000000020000000000000000000000000000000000000000000000000000000000000000000000000000000000000000000000000000000000008000000000000000000000000000000000000000000000040000000000000000100000000000000000000000000000010000000000000000000000000000000000000000000000000000000000000000200000000000000000000000000000100000000800000000000000000000000000000000000000042000000200000000000000000000000002000000000000000000000000000000000000000000000000000000000000000000000000000000000000000",
      "type": "0x2",
      "transactionHash": "0xa18374bcfe71c2d30d34519252cda2e6c39b409e2dfeaa608c4dec94f18d4912",
      "transactionIndex": "0x0",
      "blockHash": "0x981f06fb37b959b5a75629de0bc75a44327f2363a707628f026a2132bd4bf8fc",
      "blockNumber": "0x3",
      "gasUsed": "0x8787",
      "effectiveGasPrice": "0x2e0665cc",
      "blobGasPrice": "0x1",
      "from": "0xf39fd6e51aad88f6f4ce6ab8827279cfffb92266",
      "to": "0x5fbdb2315678afecb367f032d93f642f64180aa3",
      "contractAddress": null
    },
    {
      "status": "0x1",
      "cumulativeGasUsed": "0x10f0e",
      "logs": [
        {
          "address": "0x5fbdb2315678afecb367f032d93f642f64180aa3",
          "topics": [
            "0xddf252ad1be2c89b69c2b068fc378daa952ba7f163c4a11628f55a4df523b3ef",
            "0x000000000000000000000000f39fd6e51aad88f6f4ce6ab8827279cfffb92266",
            "0x000000000000000000000000abcdefabcdefabcdefabcdefabcdefabcdefabcd"
          ],
          "data": "0x00000000000000000000000000000000000000000000005150ae84a8cdf00000",
          "blockHash": "0x981f06fb37b959b5a75629de0bc75a44327f2363a707628f026a2132bd4bf8fc",
          "blockNumber": "0x3",
          "blockTimestamp": "0x69bab5c9",
          "transactionHash": "0x092839e58077a3f29fb9440094d15df19fc6c1742fe6e6802b0a1cc30a943f7e",
          "transactionIndex": "0x1",
          "logIndex": "0x1",
          "removed": false
        }
      ],
      "logsBloom": "0x00000000000000000000000000000000000000000000000000000000000000000000000000000000000000000000000000000000000000000000000000000000000000000000000000000008000000000000000000000000000000000000000000000040000000000000000500000000000000000000000000000010000000000000000000000000000000000000000000000000000000000000000200000000020000000000000000000000000000000000000000000000000000000000000000000042000000200000000000000000000000002000000000000000000000000000000000000000000000080000000000000000000000000000000000000000",
      "type": "0x2",
      "transactionHash": "0x092839e58077a3f29fb9440094d15df19fc6c1742fe6e6802b0a1cc30a943f7e",
      "transactionIndex": "0x1",
      "blockHash": "0x981f06fb37b959b5a75629de0bc75a44327f2363a707628f026a2132bd4bf8fc",
      "blockNumber": "0x3",
      "gasUsed": "0x8787",
      "effectiveGasPrice": "0x2e0665cc",
      "blobGasPrice": "0x1",
      "from": "0xf39fd6e51aad88f6f4ce6ab8827279cfffb92266",
      "to": "0x5fbdb2315678afecb367f032d93f642f64180aa3",
      "contractAddress": null
    }
  ],
  "libraries": [],
  "pending": [],
  "returns": {},
  "timestamp": 1773843913862,
  "chain": 31337,
  "commit": null
}