{
  "transactions": [
    {
      "hash": "0x28c06aac9d756076be183377f53068ae784ddec43a5db080ce95ab04718cd695",
      "transactionType": "CALL",
      "contractName": null,
      "contractAddress": "0x2279b7a0a67db372996a5fab50d91eaa73d2ebe6",
      "function": "proposal(address,uint256,bytes)",
      "arguments": [
        "0x90F79bf6EB2c4f870365E785982E1f101E93b906",
        "100000000000000000",
        "0x"
      ],
      "transaction": {
        "from": "0xf39fd6e51aad88f6f4ce6ab8827279cfffb92266",
        "to": "0x2279b7a0a67db372996a5fab50d91eaa73d2ebe6",
        "gas": "0x31298",
        "value": "0x0",
        "input": "0xd1adf4d800000000000000000000000090f79bf6eb2c4f870365e785982e1f101e93b906000000000000000000000000000000000000000000000000016345785d8a000000000000000000000000000000000000000000000000000000000000000000600000000000000000000000000000000000000000000000000000000000000000",
        "nonce": "0xa",
        "chainId": "0x7a69"
      },
      "additionalContracts": [],
      "isFixedGasLimit": false
    },
    {
      "hash": "0x2ce6578140da9372143a9a46c4f1d45104b7267e576cbc5119d6afbb55e4d59c",
      "transactionType": "CALL",
      "contractName": null,
      "contractAddress": "0x2279b7a0a67db372996a5fab50d91eaa73d2ebe6",
      "function": "confirm(uint256)",
      "arguments": [
        "0"
      ],
      "transaction": {
        "from": "0x70997970c51812dc3a010c7d01b50e0d17dc79c8",
        "to": "0x2279b7a0a67db372996a5fab50d91eaa73d2ebe6",
        "gas": "0x1361d",
        "value": "0x0",
        "input": "0xba0179b50000000000000000000000000000000000000000000000000000000000000000",
        "nonce": "0x0",
        "chainId": "0x7a69"
      },
      "additionalContracts": [],
      "isFixedGasLimit": false
    },
    {
      "hash": "0x5466fdf22c82782c5990c233f34a4c9ebac0ca2c14c6e003e199f637039783ad",
      "transactionType": "CALL",
      "contractName": null,
      "contractAddress": "0x2279b7a0a67db372996a5fab50d91eaa73d2ebe6",
      "function": "execute(uint256)",
      "arguments": [
        "0"
      ],
      "transaction": {
        "from": "0xf39fd6e51aad88f6f4ce6ab8827279cfffb92266",
        "to": "0x2279b7a0a67db372996a5fab50d91eaa73d2ebe6",
        "gas": "0x16d7f",
        "value": "0x0",
        "input": "0xfe0d94c10000000000000000000000000000000000000000000000000000000000000000",
        "nonce": "0xb",
        "chainId": "0x7a69"
      },
      "additionalContracts": [],
      "isFixedGasLimit": false
    }
  ],
  "receipts": [
    {
      "status": "0x1",
      "cumulativeGasUsed": "0x2397c",
      "logs": [
        {
          "address": "0x2279b7a0a67db372996a5fab50d91eaa73d2ebe6",
          "topics": [
            "0x5b6a3c1bd47821bafa6a032c30ffae02d4a8af392d335168896d7c0fb303d224",
            "0x0000000000000000000000000000000000000000000000000000000000000000",
            "0x000000000000000000000000f39fd6e51aad88f6f4ce6ab8827279cfffb92266",
            "0x00000000000000000000000090f79bf6eb2c4f870365e785982e1f101e93b906"
          ],
          "data": "0x000000000000000000000000000000000000000000000000016345785d8a000000000000000000000000000000000000000000000000000000000000000000400000000000000000000000000000000000000000000000000000000000000000",
          "blockHash": "0xe0b3778ca06af3107aa6390de24da5ecadefe6535d5325d9cbf9f56b82851aa4",
          "blockNumber": "0xb",
          "blockTimestamp": "0x69c1171d",
          "transactionHash": "0x28c06aac9d756076be183377f53068ae784ddec43a5db080ce95ab04718cd695",
          "transactionIndex": "0x0",
          "logIndex": "0x0",
          "removed": false
        },
        {
          "address": "0x2279b7a0a67db372996a5fab50d91eaa73d2ebe6",
          "topics": [
            "0x1f7db319f45151674bbce08ad4e1093bca1941bc7ef2f91ccafd6519406f0101",
            "0x0000000000000000000000000000000000000000000000000000000000000000",
            "0x000000000000000000000000f39fd6e51aad88f6f4ce6ab8827279cfffb92266"
          ],
          "data": "0x",
          "blockHash": "0xe0b3778ca06af3107aa6390de24da5ecadefe6535d5325d9cbf9f56b82851aa4",
          "blockNumber": "0xb",
          "blockTimestamp": "0x69c1171d",
          "transactionHash": "0x28c06aac9d756076be183377f53068ae784ddec43a5db080ce95ab04718cd695",
          "transactionIndex": "0x0",
          "logIndex": "0x1",
          "removed": false
        }
      ],
      "logsBloom": "0x00000000000000000000000000000000000000000000000000000000000000000000000000000000000000000000000000000000000000000000000000000000000000000000000000000000000000000000008000000000000000020000000000000000020000000000000100000800000000000002000000000000000000000000000000000000000000000000000000000000000040000401000000000200000000000001000000000000000040000000000000000000000000000000008000000000000000200000000000000000400000002000000000000000000020000000000000000000000010000000000000000000000000000000000000000000",
      "type": "0x2",
      "transactionHash": "0x28c06aac9d756076be183377f53068ae784ddec43a5db080ce95ab04718cd695",
      "transactionIndex": "0x0",
      "blockHash": "0xe0b3778ca06af3107aa6390de24da5ecadefe6535d5325d9cbf9f56b82851aa4",
      "blockNumber": "0xb",
      "gasUsed": "0x2397c",
      "effectiveGasPrice": "0x10b4640e",
      "blobGasPrice": "0x1",
      "from": "0xf39fd6e51aad88f6f4ce6ab8827279cfffb92266",
      "to": "0x2279b7a0a67db372996a5fab50d91eaa73d2ebe6",
      "contractAddress": null
    },
    {
      "status": "0x1",
      "cumulativeGasUsed": "0xe085",
      "logs": [
        {
          "address": "0x2279b7a0a67db372996a5fab50d91eaa73d2ebe6",
          "topics": [
            "0x1f7db319f45151674bbce08ad4e1093bca1941bc7ef2f91ccafd6519406f0101",
            "0x0000000000000000000000000000000000000000000000000000000000000000",
            "0x00000000000000000000000070997970c51812dc3a010c7d01b50e0d17dc79c8"
          ],
          "data": "0x",
          "blockHash": "0x5ae82daf8caa69dd41b976a9aacc45821022f9a1d251c3e285424e5c380ac6b0",
          "blockNumber": "0xc",
          "blockTimestamp": "0x69c1171d",
          "transactionHash": "0x2ce6578140da9372143a9a46c4f1d45104b7267e576cbc5119d6afbb55e4d59c",
          "transactionIndex": "0x0",
          "logIndex": "0x0",
          "removed": false
        }
      ],
      "logsBloom": "0x00000000000000000002000000000000000000000000000000000000000000000000000000000000000000000000000000000000000000000000000000000000000000000000000000000000000000000000008000000000000000020000000000000800020000000000000000000800000000000000000000000000000000000000000000000000000000000000000000000000000040000001000000000000000000000000000000000000000040000000000000000000000000000000008000000000000000000000000000000000000000000000000000000000000020000000000000000000000000000000000001000000000000000000000000000000",
      "type": "0x2",
      "transactionHash": "0x2ce6578140da9372143a9a46c4f1d45104b7267e576cbc5119d6afbb55e4d59c",
      "transactionIndex": "0x0",
      "blockHash": "0x5ae82daf8caa69dd41b976a9aacc45821022f9a1d251c3e285424e5c380ac6b0",
      "blockNumber": "0xc",
      "gasUsed": "0xe085",
      "effectiveGasPrice": "0xea30992",
      "blobGasPrice": "0x1",
      "from": "0x70997970c51812dc3a010c7d01b50e0d17dc79c8",
      "to": "0x2279b7a0a67db372996a5fab50d91eaa73d2ebe6",
      "contractAddress": null
    },
    {
      "status": "0x1",
      "cumulativeGasUsed": "0x1089e",
      "logs": [
        {
          "address": "0x2279b7a0a67db372996a5fab50d91eaa73d2ebe6",
          "topics": [
            "0x33e13ecb54c3076d8e8bb8c2881800a4d972b792045ffae98fdf46df365fed75",
            "0x0000000000000000000000000000000000000000000000000000000000000000"
          ],
          "data": "0x",
          "blockHash": "0x345db4b056e6a74feeec1ada4a72de43e23a2242eba75ccf1224e075ee9abc8f",
          "blockNumber": "0xd",
          "blockTimestamp": "0x69c1171d",
          "transactionHash": "0x5466fdf22c82782c5990c233f34a4c9ebac0ca2c14c6e003e199f637039783ad",
          "transactionIndex": "0x0",
          "logIndex": "0x0",
          "removed": false
        }
      ],
      "logsBloom": "0x00000000000000000000000000000000000000000000000000000000000000000000000020000000000000000000000000000000000000000000000000000000000000000000000000000000000000000000040000000000000000000000000000000000020000000000000000000800000000000000000000000000000000000000000000000000000000000000000000000000000040000000000000000000000000000000000000000000000040000000000040000000000000000000008000000000000000000000000000000000000000000000000000000000000020000000000000000000000000000000000000000000000000000000000000000000",
      "type": "0x2",
      "transactionHash": "0x5466fdf22c82782c5990c233f34a4c9ebac0ca2c14c6e003e199f637039783ad",
      "transactionIndex": "0x0",
      "blockHash": "0x345db4b056e6a74feeec1ada4a72de43e23a2242eba75ccf1224e075ee9abc8f",
      "blockNumber": "0xd",
      "gasUsed": "0x1089e",
      "effectiveGasPrice": "0xcd073d4",
      "blobGasPrice": "0x1",
      "from": "0xf39fd6e51aad88f6f4ce6ab8827279cfffb92266",
      "to": "0x2279b7a0a67db372996a5fab50d91eaa73d2ebe6",
      "contractAddress": null
    }
  ],
  "libraries": [],
  "pending": [],
  "returns": {},
  "timestamp": 1774262045976,
  "chain": 31337,
  "commit": "1172834"
}