{
  "transactions": [
    {
      "hash": "0x484a17ceadb68cfcf854608fc6d61d2d3ba944d283b6f5a860f17bd3f82285cd",
      "transactionType": "CALL",
      "contractName": null,
      "contractAddress": "0x2279b7a0a67db372996a5fab50d91eaa73d2ebe6",
      "function": "proposal(address,uint256,bytes)",
      "arguments": [
        "0x90F79bf6EB2c4f870365E785982E1f101E93b906",
        "100000000000000000",
        "0x"
      ],
      "transaction": {
        "from": "0xf39fd6e51aad88f6f4ce6ab8827279cfffb92266",
        "to": "0x2279b7a0a67db372996a5fab50d91eaa73d2ebe6",
        "gas": "0x2b656",
        "value": "0x0",
        "input": "0xd1adf4d800000000000000000000000090f79bf6eb2c4f870365e785982e1f101e93b906000000000000000000000000000000000000000000000000016345785d8a000000000000000000000000000000000000000000000000000000000000000000600000000000000000000000000000000000000000000000000000000000000000",
        "nonce": "0xc",
        "chainId": "0x7a69"
      },
      "additionalContracts": [],
      "isFixedGasLimit": false
    },
    {
      "hash": "0x4089633b14c7c67608d7dd80c517234729de3a897d7f21839ea4361cee1ccb0c",
      "transactionType": "CALL",
      "contractName": null,
      "contractAddress": "0x2279b7a0a67db372996a5fab50d91eaa73d2ebe6",
      "function": "confirm(uint256)",
      "arguments": [
        "1"
      ],
      "transaction": {
        "from": "0x70997970c51812dc3a010c7d01b50e0d17dc79c8",
        "to": "0x2279b7a0a67db372996a5fab50d91eaa73d2ebe6",
        "gas": "0x1486d",
        "value": "0x0",
        "input": "0xba0179b50000000000000000000000000000000000000000000000000000000000000001",
        "nonce": "0x1",
        "chainId": "0x7a69"
      },
      "additionalContracts": [],
      "isFixedGasLimit": false
    },
    {
      "hash": "0x628e0d60aaf0e8eb4242af214d7a3732da6cb730cedfae22c99fddd247c3c040",
      "transactionType": "CALL",
      "contractName": null,
      "contractAddress": "0x2279b7a0a67db372996a5fab50d91eaa73d2ebe6",
      "function": "execute(uint256)",
      "arguments": [
        "1"
      ],
      "transaction": {
        "from": "0xf39fd6e51aad88f6f4ce6ab8827279cfffb92266",
        "to": "0x2279b7a0a67db372996a5fab50d91eaa73d2ebe6",
        "gas": "0x18311",
        "value": "0x0",
        "input": "0xfe0d94c10000000000000000000000000000000000000000000000000000000000000001",
        "nonce": "0xd",
        "chainId": "0x7a69"
      },
      "additionalContracts": [],
      "isFixedGasLimit": false
    }
  ],
  "receipts": [
    {
      "status": "0x1",
      "cumulativeGasUsed": "0x1f6b0",
      "logs": [
        {
          "address": "0x2279b7a0a67db372996a5fab50d91eaa73d2ebe6",
          "topics": [
            "0x5b6a3c1bd47821bafa6a032c30ffae02d4a8af392d335168896d7c0fb303d224",
            "0x0000000000000000000000000000000000000000000000000000000000000001",
            "0x000000000000000000000000f39fd6e51aad88f6f4ce6ab8827279cfffb92266",
            "0x00000000000000000000000090f79bf6eb2c4f870365e785982e1f101e93b906"
          ],
          "data": "0x000000000000000000000000000000000000000000000000016345785d8a000000000000000000000000000000000000000000000000000000000000000000400000000000000000000000000000000000000000000000000000000000000000",
          "blockHash": "0xaea919f5ae41b7fbddea21ca5c67b9f85156be5b8895af4ea5162234ba22de52",
          "blockNumber": "0xe",
          "blockTimestamp": "0x69c11736",
          "transactionHash": "0x484a17ceadb68cfcf854608fc6d61d2d3ba944d283b6f5a860f17bd3f82285cd",
          "transactionIndex": "0x0",
          "logIndex": "0x0",
          "removed": false
        },
        {
          "address": "0x2279b7a0a67db372996a5fab50d91eaa73d2ebe6",
          "topics": [
            "0x1f7db319f45151674bbce08ad4e1093bca1941bc7ef2f91ccafd6519406f0101",
            "0x0000000000000000000000000000000000000000000000000000000000000001",
            "0x000000000000000000000000f39fd6e51aad88f6f4ce6ab8827279cfffb92266"
          ],
          "data": "0x",
          "blockHash": "0xaea919f5ae41b7fbddea21ca5c67b9f85156be5b8895af4ea5162234ba22de52",
          "blockNumber": "0xe",
          "blockTimestamp": "0x69c11736",
          "transactionHash": "0x484a17ceadb68cfcf854608fc6d61d2d3ba944d283b6f5a860f17bd3f82285cd",
          "transactionIndex": "0x0",
          "logIndex": "0x1",
          "removed": false
        }
      ],
      "logsBloom": "0x00000000000000000000000000000000000000000000000000000000000000000000000000000000000000000000000000000000000000000000000000040000000000000000000000000000000000000000008000040000000000020000000000000000000000000000000100000000000000000002000000000000000000000000000000000000000000000000000000000000000040000401000000000200000000000001000000000000000040000000000000000000000000000000008000000000000000200000000000000000400000002000000000000000000040000000000000000000000010000000000000000000000000000000000000000000",
      "type": "0x2",
      "transactionHash": "0x484a17ceadb68cfcf854608fc6d61d2d3ba944d283b6f5a860f17bd3f82285cd",
      "transactionIndex": "0x0",
      "blockHash": "0xaea919f5ae41b7fbddea21ca5c67b9f85156be5b8895af4ea5162234ba22de52",
      "blockNumber": "0xe",
      "gasUsed": "0x1f6b0",
      "effectiveGasPrice": "0xb383f6e",
      "blobGasPrice": "0x1",
      "from": "0xf39fd6e51aad88f6f4ce6ab8827279cfffb92266",
      "to": "0x2279b7a0a67db372996a5fab50d91eaa73d2ebe6",
      "contractAddress": null
    },
    {
      "status": "0x1",
      "cumulativeGasUsed": "0xe091",
      "logs": [
        {
          "address": "0x2279b7a0a67db372996a5fab50d91eaa73d2ebe6",
          "topics": [
            "0x1f7db319f45151674bbce08ad4e1093bca1941bc7ef2f91ccafd6519406f0101",
            "0x0000000000000000000000000000000000000000000000000000000000000001",
            "0x00000000000000000000000070997970c51812dc3a010c7d01b50e0d17dc79c8"
          ],
          "data": "0x",
          "blockHash": "0x5ca266aabfffaf67179903f52bf4e4d9f267128e8b8fcc3ac5f4b64443335be9",
          "blockNumber": "0xf",
          "blockTimestamp": "0x69c11736",
          "transactionHash": "0x4089633b14c7c67608d7dd80c517234729de3a897d7f21839ea4361cee1ccb0c",
          "transactionIndex": "0x0",
          "logIndex": "0x0",
          "removed": false
        }
      ],
      "logsBloom": "0x00000000000000000002000000000000000000000000000000000000000000000000000000000000000000000000000000000000000000000000000000040000000000000000000000000000000000000000008000040000000000020000000000000800000000000000000000000000000000000000000000000000000000000000000000000000000000000000000000000000000040000001000000000000000000000000000000000000000040000000000000000000000000000000008000000000000000000000000000000000000000000000000000000000000040000000000000000000000000000000000001000000000000000000000000000000",
      "type": "0x2",
      "transactionHash": "0x4089633b14c7c67608d7dd80c517234729de3a897d7f21839ea4361cee1ccb0c",
      "transactionIndex": "0x0",
      "blockHash": "0x5ca266aabfffaf67179903f52bf4e4d9f267128e8b8fcc3ac5f4b64443335be9",
      "blockNumber": "0xf",
      "gasUsed": "0xe091",
      "effectiveGasPrice": "0x9d44c09",
      "blobGasPrice": "0x1",
      "from": "0x70997970c51812dc3a010c7d01b50e0d17dc79c8",
      "to": "0x2279b7a0a67db372996a5fab50d91eaa73d2ebe6",
      "contractAddress": null
    },
    {
      "status": "0x1",
      "cumulativeGasUsed": "0x108aa",
      "logs": [
        {
          "address": "0x2279b7a0a67db372996a5fab50d91eaa73d2ebe6",
          "topics": [
            "0x33e13ecb54c3076d8e8bb8c2881800a4d972b792045ffae98fdf46df365fed75",
            "0x0000000000000000000000000000000000000000000000000000000000000001"
          ],
          "data": "0x",
          "blockHash": "0x2ddc241309f335ad4eacc42178eded2e5f634deff054ac6770a803bfb5924ad7",
          "blockNumber": "0x10",
          "blockTimestamp": "0x69c11736",
          "transactionHash": "0x628e0d60aaf0e8eb4242af214d7a3732da6cb730cedfae22c99fddd247c3c040",
          "transactionIndex": "0x0",
          "logIndex": "0x0",
          "removed": false
        }
      ],
      "logsBloom": "0x00000000000000000000000000000000000000000000000000000000000000000000000020000000000000000000000000000000000000000000000000040000000000000000000000000000000000000000040000040000000000000000000000000000000000000000000000000000000000000000000000000000000000000000000000000000000000000000000000000000000040000000000000000000000000000000000000000000000040000000000040000000000000000000008000000000000000000000000000000000000000000000000000000000000040000000000000000000000000000000000000000000000000000000000000000000",
      "type": "0x2",
      "transactionHash": "0x628e0d60aaf0e8eb4242af214d7a3732da6cb730cedfae22c99fddd247c3c040",
      "transactionIndex": "0x0",
      "blockHash": "0x2ddc241309f335ad4eacc42178eded2e5f634deff054ac6770a803bfb5924ad7",
      "blockNumber": "0x10",
      "gasUsed": "0x108aa",
      "effectiveGasPrice": "0x89af724",
      "blobGasPrice": "0x1",
      "from": "0xf39fd6e51aad88f6f4ce6ab8827279cfffb92266",
      "to": "0x2279b7a0a67db372996a5fab50d91eaa73d2ebe6",
      "contractAddress": null
    }
  ],
  "libraries": [],
  "pending": [],
  "returns": {},
  "timestamp": 1774262070116,
  "chain": 31337,
  "commit": "1172834"
}