{
  "transactions": [
    {
      "hash": "0xde5f8943afde9ec78872d3f9ef6ed817b100c14c41abd9497aff140e3149d65b",
      "transactionType": "CALL",
      "contractName": null,
      "contractAddress": "0xe7f1725e7734ce288f8367e1bb143e90bb3f0512",
      "function": "proposal(address,uint256,bytes)",
      "arguments": [
        "0x90F79bf6EB2c4f870365E785982E1f101E93b906",
        "100000000000000000",
        "0x"
      ],
      "transaction": {
        "from": "0xf39fd6e51aad88f6f4ce6ab8827279cfffb92266",
        "to": "0xe7f1725e7734ce288f8367e1bb143e90bb3f0512",
        "gas": "0x31298",
        "value": "0x0",
        "input": "0xd1adf4d800000000000000000000000090f79bf6eb2c4f870365e785982e1f101e93b906000000000000000000000000000000000000000000000000016345785d8a000000000000000000000000000000000000000000000000000000000000000000600000000000000000000000000000000000000000000000000000000000000000",
        "nonce": "0x4",
        "chainId": "0x7a69"
      },
      "additionalContracts": [],
      "isFixedGasLimit": false
    },
    {
      "hash": "0xb8e2d293c26c762ff034c1dc1f2959729ea209582dccd6f410931735cd929cab",
      "transactionType": "CALL",
      "contractName": null,
      "contractAddress": "0xe7f1725e7734ce288f8367e1bb143e90bb3f0512",
      "function": "confirm(uint256)",
      "arguments": [
        "0"
      ],
      "transaction": {
        "from": "0x70997970c51812dc3a010c7d01b50e0d17dc79c8",
        "to": "0xe7f1725e7734ce288f8367e1bb143e90bb3f0512",
        "gas": "0x1361d",
        "value": "0x0",
        "input": "0xba0179b50000000000000000000000000000000000000000000000000000000000000000",
        "nonce": "0x0",
        "chainId": "0x7a69"
      },
      "additionalContracts": [],
      "isFixedGasLimit": false
    },
    {
      "hash": "0xc9d10d02fb21e1229e0ea5bffd6b90c7d50e28afb57b8ca1bf4e6ceadc2e0843",
      "transactionType": "CALL",
      "contractName": null,
      "contractAddress": "0xe7f1725e7734ce288f8367e1bb143e90bb3f0512",
      "function": "execute(uint256)",
      "arguments": [
        "0"
      ],
      "transaction": {
        "from": "0xf39fd6e51aad88f6f4ce6ab8827279cfffb92266",
        "to": "0xe7f1725e7734ce288f8367e1bb143e90bb3f0512",
        "gas": "0x16d7f",
        "value": "0x0",
        "input": "0xfe0d94c10000000000000000000000000000000000000000000000000000000000000000",
        "nonce": "0x5",
        "chainId": "0x7a69"
      },
      "additionalContracts": [],
      "isFixedGasLimit": false
    }
  ],
  "receipts": [
    {
      "status": "0x1",
      "cumulativeGasUsed": "0x2397c",
      "logs": [
        {
          "address": "0xe7f1725e7734ce288f8367e1bb143e90bb3f0512",
          "topics": [
            "0x5b6a3c1bd47821bafa6a032c30ffae02d4a8af392d335168896d7c0fb303d224",
            "0x0000000000000000000000000000000000000000000000000000000000000000",
            "0x000000000000000000000000f39fd6e51aad88f6f4ce6ab8827279cfffb92266",
            "0x00000000000000000000000090f79bf6eb2c4f870365e785982e1f101e93b906"
          ],
          "data": "0x000000000000000000000000000000000000000000000000016345785d8a000000000000000000000000000000000000000000000000000000000000000000400000000000000000000000000000000000000000000000000000000000000000",
          "blockHash": "0x83713ea276a497ebc1f2331074a1f031abfda937939e74a64cdd970527e603c7",
          "blockNumber": "0x5",
          "blockTimestamp": "0x69c11d78",
          "transactionHash": "0xde5f8943afde9ec78872d3f9ef6ed817b100c14c41abd9497aff140e3149d65b",
          "transactionIndex": "0x0",
          "logIndex": "0x0",
          "removed": false
        },
        {
          "address": "0xe7f1725e7734ce288f8367e1bb143e90bb3f0512",
          "topics": [
            "0x1f7db319f45151674bbce08ad4e1093bca1941bc7ef2f91ccafd6519406f0101",
            "0x0000000000000000000000000000000000000000000000000000000000000000",
            "0x000000000000000000000000f39fd6e51aad88f6f4ce6ab8827279cfffb92266"
          ],
          "data": "0x",
          "blockHash": "0x83713ea276a497ebc1f2331074a1f031abfda937939e74a64cdd970527e603c7",
          "blockNumber": "0x5",
          "blockTimestamp": "0x69c11d78",
          "transactionHash": "0xde5f8943afde9ec78872d3f9ef6ed817b100c14c41abd9497aff140e3149d65b",
          "transactionIndex": "0x0",
          "logIndex": "0x1",
          "removed": false
        }
      ],
      "logsBloom": "0x00000000000000000000000000000000000000000000000000000000000000000000000000000000000000000000000010000000000000000000000000000000000000000000000000000000000000000000008000000000000000020000000000000000020000000000000100000800000000000002000000000000000000000000000000000000000000000000000000000000000000000401000000000200000000000001000000000000000000000000000000000000000000000000000000000000000000200000000000001000400000002000000000000000000020000000000000000000000010000000000000000000000000800000000000000000",
      "type": "0x2",
      "transactionHash": "0xde5f8943afde9ec78872d3f9ef6ed817b100c14c41abd9497aff140e3149d65b",
      "transactionIndex": "0x0",
      "blockHash": "0x83713ea276a497ebc1f2331074a1f031abfda937939e74a64cdd970527e603c7",
      "blockNumber": "0x5",
      "gasUsed": "0x2397c",
      "effectiveGasPrice": "0x23b14c25",
      "blobGasPrice": "0x1",
      "from": "0xf39fd6e51aad88f6f4ce6ab8827279cfffb92266",
      "to": "0xe7f1725e7734ce288f8367e1bb143e90bb3f0512",
      "contractAddress": null
    },
    {
      "status": "0x1",
      "cumulativeGasUsed": "0xe085",
      "logs": [
        {
          "address": "0xe7f1725e7734ce288f8367e1bb143e90bb3f0512",
          "topics": [
            "0x1f7db319f45151674bbce08ad4e1093bca1941bc7ef2f91ccafd6519406f0101",
            "0x0000000000000000000000000000000000000000000000000000000000000000",
            "0x00000000000000000000000070997970c51812dc3a010c7d01b50e0d17dc79c8"
          ],
          "data": "0x",
          "blockHash": "0x42809003deb823243819f8dc564ec5a4eca5315013b9c37a4f0a8b7c0c9c83b7",
          "blockNumber": "0x6",
          "blockTimestamp": "0x69c11d78",
          "transactionHash": "0xb8e2d293c26c762ff034c1dc1f2959729ea209582dccd6f410931735cd929cab",
          "transactionIndex": "0x0",
          "logIndex": "0x0",
          "removed": false
        }
      ],
      "logsBloom": "0x00000000000000000002000000000000000000000000000000000000000000000000000000000000000000000000000010000000000000000000000000000000000000000000000000000000000000000000008000000000000000020000000000000800020000000000000000000800000000000000000000000000000000000000000000000000000000000000000000000000000000000001000000000000000000000000000000000000000000000000000000000000000000000000000000000000000000000000000000001000000000000000000000000000000020000000000000000000000000000000000001000000000000800000000000000000",
      "type": "0x2",
      "transactionHash": "0xb8e2d293c26c762ff034c1dc1f2959729ea209582dccd6f410931735cd929cab",
      "transactionIndex": "0x0",
      "blockHash": "0x42809003deb823243819f8dc564ec5a4eca5315013b9c37a4f0a8b7c0c9c83b7",
      "blockNumber": "0x6",
      "gasUsed": "0xe085",
      "effectiveGasPrice": "0x1f463c76",
      "blobGasPrice": "0x1",
      "from": "0x70997970c51812dc3a010c7d01b50e0d17dc79c8",
      "to": "0xe7f1725e7734ce288f8367e1bb143e90bb3f0512",
      "contractAddress": null
    },
    {
      "status": "0x1",
      "cumulativeGasUsed": "0x1089e",
      "logs": [
        {
          "address": "0xe7f1725e7734ce288f8367e1bb143e90bb3f0512",
          "topics": [
            "0x33e13ecb54c3076d8e8bb8c2881800a4d972b792045ffae98fdf46df365fed75",
            "0x0000000000000000000000000000000000000000000000000000000000000000"
          ],
          "data": "0x",
          "blockHash": "0x8f759fc5c9f9063c1837a049de5b0507b0557cb6305b96850613bdae57830c16",
          "blockNumber": "0x7",
          "blockTimestamp": "0x69c11d78",
          "transactionHash": "0xc9d10d02fb21e1229e0ea5bffd6b90c7d50e28afb57b8ca1bf4e6ceadc2e0843",
          "transactionIndex": "0x0",
          "logIndex": "0x0",
          "removed": false
        }
      ],
      "logsBloom": "0x00000000000000000000000000000000000000000000000000000000000000000000000020000000000000000000000010000000000000000000000000000000000000000000000000000000000000000000040000000000000000000000000000000000020000000000000000000800000000000000000000000000000000000000000000000000000000000000000000000000000000000000000000000000000000000000000000000000000000000000000040000000000000000000000000000000000000000000000000001000000000000000000000000000000020000000000000000000000000000000000000000000000000800000000000000000",
      "type": "0x2",
      "transactionHash": "0xc9d10d02fb21e1229e0ea5bffd6b90c7d50e28afb57b8ca1bf4e6ceadc2e0843",
      "transactionIndex": "0x0",
      "blockHash": "0x8f759fc5c9f9063c1837a049de5b0507b0557cb6305b96850613bdae57830c16",
      "blockNumber": "0x7",
      "gasUsed": "0x1089e",
      "effectiveGasPrice": "0x1b614a9c",
      "blobGasPrice": "0x1",
      "from": "0xf39fd6e51aad88f6f4ce6ab8827279cfffb92266",
      "to": "0xe7f1725e7734ce288f8367e1bb143e90bb3f0512",
      "contractAddress": null
    }
  ],
  "libraries": [],
  "pending": [],
  "returns": {},
  "timestamp": 1774263672964,
  "chain": 31337,
  "commit": "1172834"
}